:101C00001124C5EED1E01FBE8FE594E09EBF8DBFCD
:101C100010BC87E189B91BB888E18AB986E880BD24
:101C20008BE4BAD081E4B8D086E5B6D082E5B4D0F2
:101C300081E1B2D01092E40180E09CE1C12CD12C72
:101C4000760101E610E0B12C912CA12C20EE622E41
:101C500020E0722E89839A83A3D02091E4018981A8
:101C60009A81222309F476C030916000215020939C
:101C7000E401A0E6B0E0E1E6F0E041914D934E2FA3
:101C8000401B4217D0F320ED230F2A3028F029EC17
:101C9000230F31543630B8F630E1B39E200D1124B5
:101CA000B22E939490FC58C0A20E93012F5F3F4F29
:101CB000F301B0824091E00050E04B515F4F241798
:101CC000350709F04EC0AA2019F08FE365D05FC038
:101CD0004091E300411138C0C090E100D090E20093
:101CE000DC24CD24DC24760125C04701F0EC8F22D2
:101CF0008816990681F068D0A0EAB0E0C401805A45
:101D00009040FC01EA0FFB1FE491ED9320E0A03E20
:101D1000B207B8F3C401F701EF73FF27E056FF4F96
:101D2000AB2DB0E0A052BF4F14962C9120833FEF13
:101D3000E31AF30ABE2CBC182091E000B216A8F2F8
:101D4000C12CD12C76017FCF413079F43DD083E591
:101D500023D01DC093010CC09301C12CD12C76015E
:101D600007C0C12CD12C760103C0C12CD12C760127
:101D70004FEFC41AD40AE40AF40AE4E9CE16E5E8FF
:101D8000DE06E8E0EE06F10410F4390163CF83E1EA
:101D900003D0E0E0F0E009955D9BFECF8CB908959B
:101DA000E091E401E03458F45F9B09C081E08E0FBC
:101DB0008093E4018CB1F0E0E05AFF4F8083A89556
:101DC00007B600FCEDCF0895CF93DF93EC01C1156A
:101DD0008CE1D80748F583E1DFDFA0EAB0E09E019F
:101DE000205A304041E0F901EA0FFB1F8D919D918F
:101DF0000C0140935700E8951124E0E0A03EBE0797
:101E000091F783E0FE0180935700E895C9DF85E0F4
:101E1000FE0180935700E895C3DF81E1809357006E
:0E1E2000E895DF91CF91B8CFDF91CF91089573
:0400000300001C00DD
:00000001FF
