:100000008FC0A9C0A8C0A7C035C1A5C0A4C0A3C047
:10001000A2C0A1C0A0C09FC09EC09DC09CC09BC0EC
:100020009AC099C098C000407A10F35A00A0724E4E
:1000300018090010A5D4E80000E87648170000E48D
:100040000B54020000CA9A3B000000E1F5050000D5
:1000500080969800000040420F000000A08601003A
:100060000000102700000000E8030000000064000A
:10007000000000000A000000000001000000000075
:100080002C76D888DC674F0823DFC1DFAE59E1B199
:10009000B796E5E3E453C63AE651997696E8E6C2A8
:1000A0008426EB898C9B62ED407C6FFCEFBC9C9FAF
:1000B00040F2BAA56FA5F490055A2AF75C936B6CD1
:1000C000F9676DC11BFCE0E40D47FEF520E6B500C5
:1000D000D0ED902E0300943577050080841E080033
:1000E00000204E0A000000C80C333333330F986EE3
:1000F00012831141EF8D2114893BE65516CFFEE6A0
:10010000DB18D1844B381BF77C1D901DA4BBE42465
:10011000203284725E228100C9F124ECA1E53D27E2
:1001200011241FBECFE5D4E0DEBFCDBF12E0A0E6B4
:10013000B0E0E0E1F3E102C005900D92AC31B1070F
:10014000D9F722E0ACE1B2E001C01D92AF33B207B3
:10015000E1F7BFD2DBC854CF80E487B983E086B92A
:10016000379A369A3699FECF089597B18F71907E5F
:10017000892B87B9369A3699FECF84B195B1089507
:10018000CF92DF92EF92FF920F931F93CF93DF9363
:100190001F92CDB7DEB7082F10E0C12CD12C76010D
:1001A000161751F0802F6983E0DFC80ED91EE11CBD
:1001B000F11C1F5F6981F4CF212F30E040E050E057
:1001C000C701B601CAD5C9010F90DF91CF911F9128
:1001D0000F91FF90EF90DF90CF90089510BC87E1D2
:1001E00089B9539A86E880BD08958AB18AB908957D
:1001F0005D9BFECF8CB980E090E00895CF93DF93B4
:10020000EC018991882311F0F3DFFBCFDF91CF91CF
:10021000089520916100309162002817390710F489
:1002200020E822BB2091630030916400821793077D
:1002300008F412BA82B3803819F487E690E002C05D
:1002400086E790E0DBCF88B7806488BF89B7806499
:1002500089BF14BC789485B78F7885BF85B78068CF
:1002600085BF85B7806885BF889585B78F7785BF3F
:10027000F89408951F920F920FB60F9211240F90C9
:100280000FBE0F901F90189560E280E079DF909389
:100290002E0280932D02BC0180E090E045D42CE535
:1002A0003FE84CE851E4F6D413D4709334026093E1
:1002B0003302CB01089560E282E062DF9093240272
:1002C00080932302BC0180E090E02ED42DE33AE03D
:1002D00049EE51E4DFD4FCD37093380260933702C7
:1002E000CB0108958F929F92AF92BF92CF92DF92EF
:1002F000EF92FF920F931F9368E083E041DFBC0110
:1003000080E090E011D426EE3FE34EE450E4C2D406
:1003100060933B0270933C0280933D0290933E02B7
:1003200020E030E048E455E4B1D418161CF486E827
:1003300090E0EDC08AEA90E061DF60913B0270914D
:100340003C0280913D0290913E02BDD3DC01CB0185
:100350004AE062E272E042D582E292E04FDF8FEB48
:1003600090E04CDF20913B0230913C0240913D02F5
:1003700050913E0260E070E48EE495E43CD320E0CE
:1003800030E040E85FE3CED29B01AC0160E070E872
:1003900082EA94E430D3609325027093260280931E
:1003A00027029093280285EC90E028DF60912502D7
:1003B00070912602809127029091280284D3DC015B
:1003C000CB014AE062E272E009D582E292E016DFF8
:1003D0008DED90E013DF20E030EE4BE954E46091C6
:1003E00025027091260280912702909128029AD2CC
:1003F00026E636E642E651E4FED220E030E040EF69
:1004000051E490D26093290270932A0280932B02C8
:1004100090932C0284EE90E0F1DE609129027091BD
:100420002A0280912B0290912C0202E212E021E03C
:1004300041E0B5D4C801E2DE81EF90E0DFDEC0909C
:100440002902D0902A02E0902B02F0902C0220E0AA
:1004500030E048EC51E4C701B60118D41816FCF49A
:10046000609165007091660080E090E05DD34B0183
:100470005C0120E030E048EC51E4C701B60152D203
:1004800020E030E040EF51E405D49B01AC01C50110
:10049000B40148D21DD3709336026093350220E038
:1004A00030E048EC51E4C701B601A1D287FF1FC07C
:1004B000609165007091660080E090E035D34B015B
:1004C0005C01A701960160E070E088EC91E42AD21B
:1004D00020E030E040EF51E4DDD39B01AC01C501E9
:1004E000B40121D2F5D2709336026093350284E0D4
:1004F00091E084DE4AE062E272E080913502909100
:1005000036026CD482E292E079DE8FEB90E01F91AC
:100510000F91FF90EF90DF90CF90BF90AF909F90A2
:100520008F906CCE8FEF97E40197F1F700C0000039
:1005300055DEC1DE8EE291E061DE4AE062E272E009
:10054000809137029091380249D482E292E056DEDF
:100550008FEB90E053DE98DE84E391E04FDE4AE0DB
:1005600062E272E0809133029091340237D482E2E9
:1005700092E044DE8FEB90E041DE8BE391E03EDEE3
:100580008AB59BB540E162E272E028D482E292E053
:1005900035DE87EA90E032DE28DEA4CE75DE80917B
:1005A0003502909136024496209133023091340204
:1005B0008217930708F08CC080911C0290911D0255
:1005C0009BBD8ABD10923A02109239028DE491E0EF
:1005D00015DE8091390290913A020196C9F154DEFC
:1005E000209133023091340280913502909136028D
:1005F0008217930750F48AB59BB58F3F934028F438
:100600008AB59BB501969BBD8ABD2091330230917E
:10061000340280913502909136022817390748F448
:100620008AB59BB5029728F08AB59BB501979BBD0B
:100630008ABD8091390290913A02019690933A02D4
:100640008093390289E993E00197F1F700C0C1CFA7
:1006500084E391E0D3DD4AE062E272E0809133020C
:1006600090913402BBD382E292E0C8DD8FEB90E040
:10067000C5DD83E691E0C2DD4AE062E272E080918E
:10068000350290913602AAD382E292E0B7DD80EC87
:1006900090E0B4DD8FEF9FE32BE08150904020404D
:1006A000E1F700C000008AB59BB590931D028093CE
:1006B0001C0281E891E0A2DD8AB59BB540E162E2CF
:1006C00072E08CD382E292E099DD87EA90E096CDE9
:1006D000089580E881BB82E087BB3EDD8FB58B68E3
:1006E0008FBD8EB581608EBD8FEF93E097BD86BDC7
:1006F00080EF90E09BBD8ABD85B5876085BD2FEFFB
:100700008FE392E0215080409040E1F700C000006C
:100710008091650090916600909336028093350237
:10072000CFEFD3E0B1DD809133029091340271DDDF
:1007300082E991E063DD87EA90E060DD2FDFBBDDD9
:100740002091330230913402809137029091380227
:1007500028173907B8F02091330230913402809184
:100760003702909138028217930708F0CFC0109299
:100770001F0210921E0286EF91E040DD87EA90E0B2
:100780003DDDB2C080913502909136024497281722
:10079000390708F7DBBDCABD2FEF8FE794E0215082
:1007A00080409040E1F700C0000085DD88EB91E0DB
:1007B00025DD4AE062E272E08091370290913802D2
:1007C0000DD382E292E01ADD8FEB90E017DD6091AD
:1007D00037027091380280E090E0A6D122E538EB34
:1007E0004EE95FE308D174D1709321026093200237
:1007F0001BBC1ABCD3DE2FEF8FE392E02150804068
:100800009040E1F700C0000056DD83EC91E0F6DC9B
:100810004AE062E272E08091370290913802DED2C3
:1008200082E292E0EBDC8FEB90E0E8DC82ED91E09D
:10083000E5DC4AE062E272E08091200290912102C0
:10084000CDD282E292E0DADC8FEB90E0D7DC33DDD0
:100850001BDD209137023091380280912002909167
:10086000210228173907E0F4809135029091360271
:1008700086599109209133023091340228173907A3
:1008800078F48AB59BB520916000820F911D9BBDC5
:100890008ABD8FEF93E20197F1F700C00000D7CF38
:1008A00010921F0210921E0284EE91E0A7DC87EAEC
:1008B00090E0A4DC80911E0290911F028436910585
:1008C00009F449CFC0DC8FEF97E40197F1F700C03E
:1008D000000064DE80911E0290911F0201969093A9
:1008E0001F0280931E02E6CF80911E0290911F028C
:1008F000883C910559F0A7DC80911E0290911F025F
:10090000019690931F0280931E02EECF47DE0ADE0F
:100910009FEF2FE985E0915020408040E1F700C033
:10092000000000CF5058BB27AA270ED075C166D152
:1009300030F06BD120F031F49F3F11F41EF45BC115
:100940000EF4E095E7FB51C1E92F77D180F3BA1798
:10095000620773078407950718F071F49EF58FC13D
:100960000EF4E0950B2EBA2FA02D0B01B9019001CA
:100970000C01CA01A0011124FF27591B99F0593F0E
:1009800050F4503E68F11A16F040A22F232F342F56
:100990004427585FF3CF469537952795A795F040A4
:1009A0005395C9F77EF41F16BA0B620B730B840BB9
:1009B000BAF09150A1F0FF0FBB1F661F771F881F71
:1009C000C2F70EC0BA0F621F731F841F48F48795C9
:1009D00077956795B795F7959E3F08F0B3CF9395B8
:1009E000880F08F09927EE0F979587950895D9D02D
:1009F00008F481E008950CD00FC107D140F0FED07B
:100A000030F021F45F3F19F0F0C0511139C1F3C04B
:100A100014D198F39923C9F35523B1F3951B550BC2
:100A2000BB27AA2762177307840738F09F5F5F4FC1
:100A3000220F331F441FAA1FA9F333D00E2E3AF002
:100A4000E0E830D091505040E695001CCAF729D01C
:100A5000FE2F27D0660F771F881FBB1F261737076B
:100A60004807AB07B0E809F0BB0B802DBF01FF279B
:100A700093585F4F2AF09E3F510568F0B6C000C101
:100A80005F3FECF3983EDCF3869577956795B795D5
:100A9000F7959F5FC9F7880F911D9695879597F9F0
:100AA0000895E1E0660F771F881FBB1F6217730769
:100AB0008407BA0720F0621B730B840BBA0BEE1F7E
:100AC00088F7E095089504D06894B111D9C00895CD
:100AD000BCD088F09F5790F0B92F9927B751A0F05C
:100AE000D1F0660F771F881F991F1AF0BA95C9F7C2
:100AF00012C0B13081F0C3D0B1E00895C0C0672FFB
:100B0000782F8827B85F39F0B93FCCF38695779571
:100B10006795B395D9F73EF490958095709561955A
:100B20007F4F8F4F9F4F0895E89409C097FB3EF485
:100B300090958095709561957F4F8F4F9F4F99232A
:100B4000A9F0F92F96E9BB279395F69587957795A8
:100B50006795B795F111F8CFFAF4BB0F11F460FF68
:100B60001BC06F5F7F4F8F4F9F4F16C0882311F0C0
:100B700096E911C0772321F09EE8872F762F05C0D4
:100B8000662371F096E8862F70E060E02AF09A956F
:100B9000660F771F881FDAF7880F9695879597F964
:100BA0000895990F0008550FAA0BE0E8FEEF1616FE
:100BB0001706E807F907C0F012161306E407F50751
:100BC00098F0621B730B840B950B39F40A2661F0C5
:100BD000232B242B252B21F408950A2609F4A14068
:100BE000A6958FEF811D811D089597F99F6780E875
:100BF00070E060E008959FEF80EC089500240A946F
:100C00001616170618060906089500240A941216E7
:100C10001306140605060895092E0394000C11F41A
:100C2000882352F0BB0F40F4BF2B11F460FF04C0C7
:100C30006F5F7F4F8F4F9F4F089557FD9058440F20
:100C4000551F59F05F3F71F04795880F97FB991F2B
:100C500061F09F3F79F087950895121613061406E8
:100C6000551FF2CF4695F1DF08C016161706180675
:100C7000991FF1CF86957105610508940895E89450
:100C8000BB2766277727CB0197F908958ADF08F4F9
:100C90008FEF08950BD0C0CFB1DF28F0B6DF18F08A
:100CA000952309F0A2CFA7CF1124EACFC6DFA0F386
:100CB000959FD1F3950F50E0551F629FF001729FF1
:100CC000BB27F00DB11D639FAA27F00DB11DAA1F10
:100CD000649F6627B00DA11D661F829F2227B00D5D
:100CE000A11D621F739FB00DA11D621F839FA00DE8
:100CF000611D221F749F3327A00D611D231F849F38
:100D0000600D211D822F762F6A2F11249F5750408E
:100D10008AF0E1F088234AF0EE0FFF1FBB1F661F29
:100D2000771F881F91505040A9F79E3F510570F0E2
:100D30005CCFA6CF5F3FECF3983EDCF386957795CA
:100D40006795B795F795E7959F5FC1F7FE2B880FDD
:100D5000911D9695879597F90895A1E21A2EAA1BE1
:100D6000BB1BFD010DC0AA1FBB1FEE1FFF1FA2175B
:100D7000B307E407F50720F0A21BB30BE40BF50B58
:100D8000661F771F881F991F1A9469F760957095E1
:100D9000809590959B01AC01BD01CF010895EF9224
:100DA0000F931F93CF93DF93E80147FD02C034E018
:100DB00001C034E1E42F440FFF0BF7FF03C0F195AE
:100DC000E195F109E32E022F2E2FAE012AD0CE019C
:100DD000DF91CF911F910F91EF900895BB274A307B
:100DE00031F4992322F4BDE2909581959F4F01C083
:100DF000BB27FB015527AA27880F991FAA1FA417F5
:100E000010F0A41B83955051B9F7A05DAA3308F0E8
:100E1000A95DA193009779F7B111B1931192CB011C
:100E200065C24F925F926F927F929F92AF92BF92F4
:100E3000CF92DF92EF92FF920F931F93CF93DF93A6
:100E4000CDB7DEB729970FB6F894DEBF0FBECDBF82
:100E50006A01122FB02E2BE3201720F0FF24F39409
:100E6000F00E02C0BCE3FB2E0F2D27E0AE014F5F5A
:100E70005F4F64D1AC018981982F9970913031F026
:100E8000E1FC06C0E0FE06C090E205C09DE203C0A2
:100E90009BE201C090E0EE2DE07183FF3CC0911118
:100EA00002C083E001C084E0811718F4212F281BC1
:100EB00001C020E0E1110BC0F601822F30E288234F
:100EC00019F031938150FBCFC20ED11C20E0992341
:100ED00029F0D6019C93F60131966F01C601039665
:100EE000E2FE0AC03EE4D6013C9341E411964C93E5
:100EF000119712963C9306C03EE6F601308341E618
:100F000041833283FC01322F40E2332309F442C093
:100F100041933150FACF82FF44C0911102C083E067
:100F200001C084E0811718F4212F281B01C020E0A4
:100F3000E1110BC0F601822F30E2882319F03193C2
:100F40008150FBCFC20ED11C20E0992329F0D6019D
:100F50009C93F60131966F01C6010396E2FE0BC029
:100F600039E4D6013C933EE411963C93119736E464
:100F700012963C9307C039E6F60130833EE6318392
:100F800036E63283FC01322F40E2332319F04193DD
:100F90003150FBCFFC01E20FF11D10828EEF9FEF6D
:100FA000B7C0F1E0911101C0F0E06F2F70E01416AE
:100FB000150624F49A012F5F3F4F02C021E030E074
:100FC000260F371FBB2029F06B2D70E06F5F7F4F1E
:100FD00002C060E070E0260F371F612F70E0261717
:100FE00037071CF4121B212F01C020E03E2D387161
:100FF00059F4D601322F60E2332319F06D9331504A
:10100000FBCFC20ED11C20E0FF2331F0D6019C9310
:10101000B6016F5F7F4F6B01E1110BC0F601922F9C
:1010200030E3992319F031939150FBCFC20ED11CBC
:1010300020E09F2D940F3A81782F7071A72E84FFA6
:1010400003C0313309F49150191624F4993018F083
:1010500098E001C091E0E42F852F57FF02C0E0E047
:1010600080E06E2F782FE0E0F0E0AEE29A2E3A01B9
:10107000691A71082A01461A570A0B2D10E01195BA
:10108000019511096F3F8FEF780729F4D6019C92E3
:10109000C60101966C014617570784F0661677065D
:1010A0006CF47F01E40CF51CA1E0B0E0AC0FBD1FB7
:1010B000EA0EFB1ED7011196BC9002C090E3B92E38
:1010C000615071093196C60101967C016017710764
:1010D00024F0D601BC926C01D5CF6417750741F49A
:1010E000363320F4353321F4A11002C081E3B82E49
:1010F000F601B082F701822F90E2882319F09193D4
:101100008150FBCFF701E20FF11D108280E090E0EB
:1011100029960FB6F894DEBF0FBECDBFDF91CF91F9
:101120001F910F91FF90EF90DF90CF90BF90AF9005
:101130009F907F906F905F904F900895283008F0B7
:1011400027E03327DA01990F311D87FD9160009662
:101150006105710539F432602E5F3D9330E32A95C5
:10116000E1F708959F3F30F080387105610509F07F
:101170003C5F3C5F3D93913008F08068911DDF93A8
:10118000CF931F930F93FF92EF92192F987F96950D
:10119000E92F96959695E90FFF27E058FF4F99277D
:1011A0003327EE24FF24A701E70105900894079454
:1011B00028F4360FE71EF81E491F511D660F771FD2
:1011C000881F991F0694A1F70590079428F4E70E4D
:1011D000F81E491F561FC11D770F881F991F661FD4
:1011E0000694A1F70590079428F4F80E491F561F9E
:1011F000C71FD11D880F991F661F771F0694A1F77F
:101200000590079420F4490F561FC71FD81F990F48
:10121000661F771F881F0694A9F784911095177091
:1012200041F0D695C79557954795F794E7941A9549
:10123000C1F7E6E2F0E0689415901591359165915B
:10124000959105907FE27395E118F10A430B560BD7
:10125000C90BD009C0F7E10CF11E431F561FC91F6F
:10126000D01D7EF4703311F48A95E6CFE8940150D6
:1012700030F0080F0AF40027021708F4202F2395F6
:10128000022F7A3328F079E37D932A95E9F710C08D
:101290007D932A9589F606949795679537951795C6
:1012A0001794E118F10A430B560BC90BD00998F0BB
:1012B00023957E9173957A3308F070E37C93201325
:1012C000B8F77E9170617D9330F0839571E37D93E3
:1012D00070E32A95E1F71124EF90FF900F911F9191
:1012E000CF91DF91992787FD90950895DC01FC014E
:1012F000672F71917723E1F7329704C07C916D934A
:1013000070836291AE17BF07C8F30895F894FFCFBA
:10131000010C30B42D78374C6F616420656E6162CA
:101320006C65640D0A004C6F6164206469736162CE
:101330006C65640D0A004E6F2074656D7065726196
:10134000747572652073656E736F72206176616962
:101350006C61626C652E200D0A0050544320736549
:101360006E736F7220766F6C746167653A2000202F
:101370006D560D0A005054432073656E736F7220D2
:10138000726573697374616E63653A2000204F68FB
:101390006D0D0A0054656D7065726174757265201B
:1013A0000020646567726565732043656C736975B9
:1013B000730D0A0054656D706572617475726520F5
:1013C00061646A757374656420636861726765201F
:1013D000656E6420766F6C746167653A2000565FB5
:1013E000696E2000565F6F757420004E657720503F
:1013F000574D2076616C75653A20307800496E2033
:1014000063686172676520656E64206C6F6F702021
:101410000D0A00565F6F75742061742063686172F5
:10142000676520656E6420766F6C74616765202047
:10143000006F6C645F6D70705F70776D5F76616C6C
:101440002000506172736564206C6F7720766F6C3A
:101450007461676520646973636F6E6E6563742081
:10146000726F7574696E6500565F696E5F69646C52
:101470006520004D696E696D756D20565F6D7070E9
:10148000200043616C63756C6174656420565F6D08
:10149000707020004D50502073686F756C6420622E
:1014A000652073657400476F696E6720746F2073E1
:1014B0006C6565702C20696E70757420766F6C7425
:0C14C00061676520746F6F206C6F77000F
:00000001FF
